{
  "contractName": "certi",
  "abi": [
    {
      "inputs": [],
      "stateMutability": "nonpayable",
      "type": "constructor"
    },
    {
      "inputs": [
        {
          "internalType": "string",
          "name": "",
          "type": "string"
        }
      ],
      "name": "certificates",
      "outputs": [
        {
          "internalType": "string",
          "name": "courseName",
          "type": "string"
        },
        {
          "internalType": "string",
          "name": "candidateName",
          "type": "string"
        },
        {
          "internalType": "string",
          "name": "grade",
          "type": "string"
        },
        {
          "internalType": "string",
          "name": "date",
          "type": "string"
        }
      ],
      "stateMutability": "view",
      "type": "function",
      "constant": true
    },
    {
      "inputs": [
        {
          "internalType": "string",
          "name": "certificateID",
          "type": "string"
        },
        {
          "internalType": "string",
          "name": "_courseName",
          "type": "string"
        },
        {
          "internalType": "string",
          "name": "_candidateName",
          "type": "string"
        },
        {
          "internalType": "string",
          "name": "_grade",
          "type": "string"
        },
        {
          "internalType": "string",
          "name": "_date",
          "type": "string"
        }
      ],
      "name": "issueCertificate",
      "outputs": [],
      "stateMutability": "nonpayable",
      "type": "function"
    }
  ],
  "bytecode": "0x608060405234801561001057600080fd5b5033600160006101000a81548173ffffffffffffffffffffffffffffffffffffffff021916908373ffffffffffffffffffffffffffffffffffffffff160217905550610bae806100616000396000f3fe608060405234801561001057600080fd5b50600436106100365760003560e01c8063353181581461003b5780638f2b91ea14610057575b600080fd5b6100556004803603810190610050919061057b565b61008a565b005b610071600480360381019061006c9190610682565b6101bb565b604051610081949392919061074a565b60405180910390f35b600160009054906101000a900473ffffffffffffffffffffffffffffffffffffffff1673ffffffffffffffffffffffffffffffffffffffff163373ffffffffffffffffffffffffffffffffffffffff161461011a576040517f08c379a00000000000000000000000000000000000000000000000000000000081526004016101119061081d565b60405180910390fd5b60405180608001604052808581526020018481526020018381526020018281525060008660405161014b9190610879565b9081526020016040518091039020600082015181600001908161016e9190610aa6565b5060208201518160010190816101849190610aa6565b50604082015181600201908161019a9190610aa6565b5060608201518160030190816101b09190610aa6565b509050505050505050565b6000818051602081018201805184825260208301602085012081835280955050505050506000915090508060000180546101f4906108bf565b80601f0160208091040260200160405190810160405280929190818152602001828054610220906108bf565b801561026d5780601f106102425761010080835404028352916020019161026d565b820191906000526020600020905b81548152906001019060200180831161025057829003601f168201915b505050505090806001018054610282906108bf565b80601f01602080910402602001604051908101604052809291908181526020018280546102ae906108bf565b80156102fb5780601f106102d0576101008083540402835291602001916102fb565b820191906000526020600020905b8154815290600101906020018083116102de57829003601f168201915b505050505090806002018054610310906108bf565b80601f016020809104026020016040519081016040528092919081815260200182805461033c906108bf565b80156103895780601f1061035e57610100808354040283529160200191610389565b820191906000526020600020905b81548152906001019060200180831161036c57829003601f168201915b50505050509080600301805461039e906108bf565b80601f01602080910402602001604051908101604052809291908181526020018280546103ca906108bf565b80156104175780601f106103ec57610100808354040283529160200191610417565b820191906000526020600020905b8154815290600101906020018083116103fa57829003601f168201915b5050505050905084565b6000604051905090565b600080fd5b600080fd5b600080fd5b600080fd5b6000601f19601f8301169050919050565b7f4e487b7100000000000000000000000000000000000000000000000000000000600052604160045260246000fd5b6104888261043f565b810181811067ffffffffffffffff821117156104a7576104a6610450565b5b80604052505050565b60006104ba610421565b90506104c6828261047f565b919050565b600067ffffffffffffffff8211156104e6576104e5610450565b5b6104ef8261043f565b9050602081019050919050565b82818337600083830152505050565b600061051e610519846104cb565b6104b0565b90508281526020810184848401111561053a5761053961043a565b5b6105458482856104fc565b509392505050565b600082601f83011261056257610561610435565b5b813561057284826020860161050b565b91505092915050565b600080600080600060a086880312156105975761059661042b565b5b600086013567ffffffffffffffff8111156105b5576105b4610430565b5b6105c18882890161054d565b955050602086013567ffffffffffffffff8111156105e2576105e1610430565b5b6105ee8882890161054d565b945050604086013567ffffffffffffffff81111561060f5761060e610430565b5b61061b8882890161054d565b935050606086013567ffffffffffffffff81111561063c5761063b610430565b5b6106488882890161054d565b925050608086013567ffffffffffffffff81111561066957610668610430565b5b6106758882890161054d565b9150509295509295909350565b6000602082840312156106985761069761042b565b5b600082013567ffffffffffffffff8111156106b6576106b5610430565b5b6106c28482850161054d565b91505092915050565b600081519050919050565b600082825260208201905092915050565b60005b838110156107055780820151818401526020810190506106ea565b60008484015250505050565b600061071c826106cb565b61072681856106d6565b93506107368185602086016106e7565b61073f8161043f565b840191505092915050565b600060808201905081810360008301526107648187610711565b905081810360208301526107788186610711565b9050818103604083015261078c8185610711565b905081810360608301526107a08184610711565b905095945050505050565b7f4f6e6c792061646d696e20696e20616c6c6f77656420746f206d616b6520636860008201527f616e676573000000000000000000000000000000000000000000000000000000602082015250565b60006108076025836106d6565b9150610812826107ab565b604082019050919050565b60006020820190508181036000830152610836816107fa565b9050919050565b600081905092915050565b6000610853826106cb565b61085d818561083d565b935061086d8185602086016106e7565b80840191505092915050565b60006108858284610848565b915081905092915050565b7f4e487b7100000000000000000000000000000000000000000000000000000000600052602260045260246000fd5b600060028204905060018216806108d757607f821691505b6020821081036108ea576108e9610890565b5b50919050565b60008190508160005260206000209050919050565b60006020601f8301049050919050565b600082821b905092915050565b6000600883026109527fffffffffffffffffffffffffffffffffffffffffffffffffffffffffffffffff82610915565b61095c8683610915565b95508019841693508086168417925050509392505050565b6000819050919050565b6000819050919050565b60006109a361099e61099984610974565b61097e565b610974565b9050919050565b6000819050919050565b6109bd83610988565b6109d16109c9826109aa565b848454610922565b825550505050565b600090565b6109e66109d9565b6109f18184846109b4565b505050565b5b81811015610a1557610a0a6000826109de565b6001810190506109f7565b5050565b601f821115610a5a57610a2b816108f0565b610a3484610905565b81016020851015610a43578190505b610a57610a4f85610905565b8301826109f6565b50505b505050565b600082821c905092915050565b6000610a7d60001984600802610a5f565b1980831691505092915050565b6000610a968383610a6c565b9150826002028217905092915050565b610aaf826106cb565b67ffffffffffffffff811115610ac857610ac7610450565b5b610ad282546108bf565b610add828285610a19565b600060209050601f831160018114610b105760008415610afe578287015190505b610b088582610a8a565b865550610b70565b601f198416610b1e866108f0565b60005b82811015610b4657848901518255600182019150602085019450602081019050610b21565b86831015610b635784890151610b5f601f891682610a6c565b8355505b6001600288020188555050505b50505050505056fea2646970667358221220c7a43410161ecce0ce8e2b275cb8b0d3f030dd2390d3e68007a399ac602a8a0f64736f6c63430008110033",
  "immutableReferences": {},
  "source": "//SPDX - License -Idntifier: MIT\n\npragma solidity 0.8.17;\n\ncontract certi{\n    struct certificate{\n        string courseName;\n        string candidateName;\n        string grade;\n        string date;\n    }\n\n    mapping(string => certificate) public certificates;\n\n    address admin;\n\n    constructor () {\n        admin = msg.sender;\n    }\n\n    modifier isAdmin(){\n        require(msg.sender == admin,\"Only admin in allowed to make changes\");\n        _;\n    }\n\n    function issueCertificate(string memory certificateID, string memory _courseName, string memory _candidateName, string memory _grade,string memory _date) public {\n        require(msg.sender == admin,\"Only admin in allowed to make changes\");\n        certificates[certificateID] = certificate(_courseName,_candidateName,_grade,_date);\n    } \n\n}\n\n\n\n",
  "sourcePath": "/home/vishva/dapp1/contracts/certifi.sol",
  "compiler": {
    "name": "solc",
    "version": "0.8.17+commit.8df45f5f.Emscripten.clang"
  },
  "schemaVersion": "3.4.10",
  "updatedAt": "2022-09-24T11:02:37.577Z",
  "networkType": "ethereum",
  "devdoc": {
    "kind": "dev",
    "methods": {},
    "version": 1
  },
  "userdoc": {
    "kind": "user",
    "methods": {},
    "version": 1
  }
}